{
  "_format": "hh-sol-artifact-1",
  "contractName": "Vault",
  "sourceName": "contracts/Vault.sol",
  "abi": [
    {
      "inputs": [
        {
          "internalType": "address",
          "name": "_safe",
          "type": "address"
        }
      ],
      "stateMutability": "nonpayable",
      "type": "constructor"
    },
    {
      "anonymous": false,
      "inputs": [
        {
          "indexed": true,
          "internalType": "address",
          "name": "sender",
          "type": "address"
        },
        {
          "indexed": false,
          "internalType": "uint256",
          "name": "amount",
          "type": "uint256"
        }
      ],
      "name": "Deposited",
      "type": "event"
    },
    {
      "anonymous": false,
      "inputs": [
        {
          "indexed": true,
          "internalType": "address",
          "name": "recipient",
          "type": "address"
        },
        {
          "indexed": false,
          "internalType": "uint256",
          "name": "amount",
          "type": "uint256"
        }
      ],
      "name": "Withdrawn",
      "type": "event"
    },
    {
      "inputs": [],
      "name": "deposit",
      "outputs": [],
      "stateMutability": "payable",
      "type": "function"
    },
    {
      "inputs": [],
      "name": "safe",
      "outputs": [
        {
          "internalType": "address",
          "name": "",
          "type": "address"
        }
      ],
      "stateMutability": "view",
      "type": "function"
    },
    {
      "inputs": [
        {
          "internalType": "address payable",
          "name": "recipient",
          "type": "address"
        },
        {
          "internalType": "uint256",
          "name": "amount",
          "type": "uint256"
        }
      ],
      "name": "withdraw",
      "outputs": [],
      "stateMutability": "nonpayable",
      "type": "function"
    },
    {
      "stateMutability": "payable",
      "type": "receive"
    }
  ],
  "bytecode": "0x608060405234801561001057600080fd5b506040516105f53803806105f5833981810160405281019061003291906100db565b806000806101000a81548173ffffffffffffffffffffffffffffffffffffffff021916908373ffffffffffffffffffffffffffffffffffffffff16021790555050610108565b600080fd5b600073ffffffffffffffffffffffffffffffffffffffff82169050919050565b60006100a88261007d565b9050919050565b6100b88161009d565b81146100c357600080fd5b50565b6000815190506100d5816100af565b92915050565b6000602082840312156100f1576100f0610078565b5b60006100ff848285016100c6565b91505092915050565b6104de806101176000396000f3fe6080604052600436106100385760003560e01c8063186f035414610044578063d0e30db01461006f578063f3fef3a3146100795761003f565b3661003f57005b600080fd5b34801561005057600080fd5b506100596100a2565b60405161006691906102c1565b60405180910390f35b6100776100c6565b005b34801561008557600080fd5b506100a0600480360381019061009b9190610355565b610116565b005b60008054906101000a900473ffffffffffffffffffffffffffffffffffffffff1681565b3373ffffffffffffffffffffffffffffffffffffffff167f2da466a7b24304f47e87fa2e1e5a81b9831ce54fec19055ce277ca2f39ba42c43460405161010c91906103a4565b60405180910390a2565b60008054906101000a900473ffffffffffffffffffffffffffffffffffffffff1673ffffffffffffffffffffffffffffffffffffffff163373ffffffffffffffffffffffffffffffffffffffff16146101a4576040517f08c379a000000000000000000000000000000000000000000000000000000000815260040161019b9061041c565b60405180910390fd5b804710156101e7576040517f08c379a00000000000000000000000000000000000000000000000000000000081526004016101de90610488565b60405180910390fd5b8173ffffffffffffffffffffffffffffffffffffffff166108fc829081150290604051600060405180830381858888f1935050505015801561022d573d6000803e3d6000fd5b508173ffffffffffffffffffffffffffffffffffffffff167f7084f5476618d8e60b11ef0d7d3f06914655adb8793e28ff7f018d4c76d505d58260405161027491906103a4565b60405180910390a25050565b600073ffffffffffffffffffffffffffffffffffffffff82169050919050565b60006102ab82610280565b9050919050565b6102bb816102a0565b82525050565b60006020820190506102d660008301846102b2565b92915050565b600080fd5b60006102ec82610280565b9050919050565b6102fc816102e1565b811461030757600080fd5b50565b600081359050610319816102f3565b92915050565b6000819050919050565b6103328161031f565b811461033d57600080fd5b50565b60008135905061034f81610329565b92915050565b6000806040838503121561036c5761036b6102dc565b5b600061037a8582860161030a565b925050602061038b85828601610340565b9150509250929050565b61039e8161031f565b82525050565b60006020820190506103b96000830184610395565b92915050565b600082825260208201905092915050565b7f4f6e6c7920536166652063616e20776974686472617700000000000000000000600082015250565b60006104066016836103bf565b9150610411826103d0565b602082019050919050565b60006020820190508181036000830152610435816103f9565b9050919050565b7f496e73756666696369656e742066756e64730000000000000000000000000000600082015250565b60006104726012836103bf565b915061047d8261043c565b602082019050919050565b600060208201905081810360008301526104a181610465565b905091905056fea26469706673582212205e9d40042e73c1558589d973642ae9074d511aeb332165c23fdcb4a64e1c2d4a64736f6c63430008140033",
  "linkReferences": {},
  "deployedLinkReferences": {}
}