{
  "_format": "hh-sol-artifact-1",
  "contractName": "Vault",
  "sourceName": "contracts/Vault.sol",
  "abi": [
    {
      "inputs": [
        {
          "internalType": "address",
          "name": "_safe",
          "type": "address"
        }
      ],
      "stateMutability": "nonpayable",
      "type": "constructor"
    },
    {
      "anonymous": false,
      "inputs": [
        {
          "indexed": true,
          "internalType": "address",
          "name": "sender",
          "type": "address"
        },
        {
          "indexed": false,
          "internalType": "uint256",
          "name": "amount",
          "type": "uint256"
        }
      ],
      "name": "Deposited",
      "type": "event"
    },
    {
      "anonymous": false,
      "inputs": [
        {
          "indexed": true,
          "internalType": "address",
          "name": "recipient",
          "type": "address"
        },
        {
          "indexed": false,
          "internalType": "uint256",
          "name": "amount",
          "type": "uint256"
        }
      ],
      "name": "Withdrawn",
      "type": "event"
    },
    {
      "inputs": [],
      "name": "deposit",
      "outputs": [],
      "stateMutability": "payable",
      "type": "function"
    },
    {
      "inputs": [],
      "name": "safe",
      "outputs": [
        {
          "internalType": "address",
          "name": "",
          "type": "address"
        }
      ],
      "stateMutability": "view",
      "type": "function"
    },
    {
      "inputs": [
        {
          "internalType": "address payable",
          "name": "recipient",
          "type": "address"
        },
        {
          "internalType": "uint256",
          "name": "amount",
          "type": "uint256"
        }
      ],
      "name": "withdraw",
      "outputs": [],
      "stateMutability": "nonpayable",
      "type": "function"
    },
    {
      "stateMutability": "payable",
      "type": "receive"
    }
  ],
  "bytecode": "0x608060405234801561001057600080fd5b5060405161070d38038061070d833981810160405281019061003291906100db565b806000806101000a81548173ffffffffffffffffffffffffffffffffffffffff021916908373ffffffffffffffffffffffffffffffffffffffff16021790555050610108565b600080fd5b600073ffffffffffffffffffffffffffffffffffffffff82169050919050565b60006100a88261007d565b9050919050565b6100b88161009d565b81146100c357600080fd5b50565b6000815190506100d5816100af565b92915050565b6000602082840312156100f1576100f0610078565b5b60006100ff848285016100c6565b91505092915050565b6105f6806101176000396000f3fe6080604052600436106100385760003560e01c8063186f035414610044578063d0e30db01461006f578063f3fef3a3146100795761003f565b3661003f57005b600080fd5b34801561005057600080fd5b506100596100a2565b6040516100669190610327565b60405180910390f35b6100776100c6565b005b34801561008557600080fd5b506100a0600480360381019061009b91906103bb565b610116565b005b60008054906101000a900473ffffffffffffffffffffffffffffffffffffffff1681565b3373ffffffffffffffffffffffffffffffffffffffff167f2da466a7b24304f47e87fa2e1e5a81b9831ce54fec19055ce277ca2f39ba42c43460405161010c919061040a565b60405180910390a2565b60008054906101000a900473ffffffffffffffffffffffffffffffffffffffff1673ffffffffffffffffffffffffffffffffffffffff163373ffffffffffffffffffffffffffffffffffffffff16146101a4576040517f08c379a000000000000000000000000000000000000000000000000000000000815260040161019b90610482565b60405180910390fd5b804710156101e7576040517f08c379a00000000000000000000000000000000000000000000000000000000081526004016101de906104ee565b60405180910390fd5b60008273ffffffffffffffffffffffffffffffffffffffff168260405161020d9061053f565b60006040518083038185875af1925050503d806000811461024a576040519150601f19603f3d011682016040523d82523d6000602084013e61024f565b606091505b5050905080610293576040517f08c379a000000000000000000000000000000000000000000000000000000000815260040161028a906105a0565b60405180910390fd5b8273ffffffffffffffffffffffffffffffffffffffff167f7084f5476618d8e60b11ef0d7d3f06914655adb8793e28ff7f018d4c76d505d5836040516102d9919061040a565b60405180910390a2505050565b600073ffffffffffffffffffffffffffffffffffffffff82169050919050565b6000610311826102e6565b9050919050565b61032181610306565b82525050565b600060208201905061033c6000830184610318565b92915050565b600080fd5b6000610352826102e6565b9050919050565b61036281610347565b811461036d57600080fd5b50565b60008135905061037f81610359565b92915050565b6000819050919050565b61039881610385565b81146103a357600080fd5b50565b6000813590506103b58161038f565b92915050565b600080604083850312156103d2576103d1610342565b5b60006103e085828601610370565b92505060206103f1858286016103a6565b9150509250929050565b61040481610385565b82525050565b600060208201905061041f60008301846103fb565b92915050565b600082825260208201905092915050565b7f4f6e6c7920536166652063616e20776974686472617700000000000000000000600082015250565b600061046c601683610425565b915061047782610436565b602082019050919050565b6000602082019050818103600083015261049b8161045f565b9050919050565b7f496e73756666696369656e742066756e64730000000000000000000000000000600082015250565b60006104d8601283610425565b91506104e3826104a2565b602082019050919050565b60006020820190508181036000830152610507816104cb565b9050919050565b600081905092915050565b50565b600061052960008361050e565b915061053482610519565b600082019050919050565b600061054a8261051c565b9150819050919050565b7f5472616e73666572206661696c65640000000000000000000000000000000000600082015250565b600061058a600f83610425565b915061059582610554565b602082019050919050565b600060208201905081810360008301526105b98161057d565b905091905056fea2646970667358221220f1d690bac9f0dec998034fc8fe81e1f47318c7f9a774c75f7965d2fa44cf024e64736f6c634300081c0033",
  "linkReferences": {},
  "deployedLinkReferences": {}
}